:020000040800F2
:10000000F008002091010008F1220008651E000898
:100010006122000859080008292B00080000000090
:10002000000000000000000000000000E9270008B8
:10003000930800080000000003270008B928000802
:10004000AB010008AB010008AB010008AB010008E0
:10005000AB010008AB010008AB010008AB010008D0
:10006000AB010008AB010008AB0100085D08000807
:10007000AB010008AB010008AB010008AB010008B0
:10008000AB010008AB010008AB010008AB010008A0
:10009000AB010008AB010008AB010008AB01000890
:1000A000AB010008AB010008AB010008AB01000880
:1000B000AB010008AB010008AB010008AB01000870
:1000C000AB010008AB010008AB010008AB01000860
:1000D000AB010008AB010008AB010008AB01000850
:1000E000AB010008AB010008AB01000800F002F80A
:1000F00000F03FF80AA090E8000C82448344AAF183
:100100000107DA4501D100F034F8AFF2090EBAE880
:100110000F0013F0010F18BFFB1A43F0010318473B
:10012000083C0000283C0000103A24BF78C878C181
:10013000FAD8520724BF30C830C144BF04680C60ED
:10014000704700000023002400250026103A28BF35
:1001500078C1FBD8520728BF30C148BF0B60704739
:10016000642900F08B80002070471FB51FBD10B5BB
:1001700010BD00F099FA1146FFF7F7FF02F0C0FD3D
:1001800000F0B7FA03B4FFF7F2FF03BC00F0BAFACD
:100190000948804709480047FEE7FEE7FEE7FEE71B
:1001A000FEE7FEE7FEE7FEE7FEE7FEE70448054957
:1001B000054A064B7047000035290008ED0000088D
:1001C000F0020020F0080020F0040020F0040020DD
:1001D000B2F120030AD5C2F1200320FA02F001FA9D
:1001E00003F321FA02F140EA0300704721FA03F019
:1001F0004FF00001704700000FB41CB50C0007AAB7
:10020000009001D02044401E074B7B44694601907A
:10021000069800F020FA002C03D06946002000F078
:100220002DFA1CBC5DF814FB7904000070B504467F
:1002300085690068C10601D5302600E02026C00788
:1002400007D070BDD4E9012130469047206A401C98
:1002500020626D1EF6D570BD70B5044685690078C4
:10026000C00707D170BDD4E9012120209047206A42
:10027000401C20626D1EF6D570BD00002DE9F041D6
:100280000646002410687529314616A510D0AFF334
:100290000080002802DA404213A507E031688A078F
:1002A00001D512A502E0490704D511A5012401E0FA
:1002B000AFF3008000210A2206F1240709E0B0FB19
:1002C000F2FCB0FBF2F302FB1C003030785418460D
:1002D000491C0028F3D123462A463046BDE8F041A8
:1002E00000F05AB9000000002D0000002B000000B3
:1002F000200000002DE9F0474FF0000A894604462F
:10030000C0F820A02046E1688847002876D025283C
:1003100006D0D4E901219047206A401C2062F1E711
:10032000E168204600258847C4F81CA0064600273F
:10033000C4F818A02A2E09D0304602F012FC38B3B7
:1003400004EB8708303EC8F8186019E059F8041B20
:10035000204604EB87029161E1688847012F064639
:1003600018D1E069002820DA25F020051DE0D8F832
:10037000180000EB800006EB40003038C8F8180089
:100380002046E1688847064602F0EBFB0028EED1E4
:10039000012F0AD02E2E08D12046E16888477F1C05
:1003A0000646022F45F02005C4DBA069002803DAC9
:1003B000404245F00105A061E80701D025F0100595
:1003C000B6B1A6F14100192802D8203645F40065DF
:1003D0004A463146204625604D46FFF7C1FE58B1DA
:1003E000012806D0ED1D25F0070000F1080989E776
:1003F00004E005F1040985E730468AE7206ABDE894
:10040000F08740EA0103024630B59B0710D14FF058
:10041000013400E008C208C91D1B9D4315EAC41F32
:10042000F8D013F0FF0102F8011B0DD01B0AF8E70A
:1004300011F8013B002B02F8013B05D011F8013BFC
:10044000002B02F8013BF3D130BD10B5203AC0F0CB
:100450000B80B1E81850203AA0E81850B1E81850C5
:10046000A0E81850BFF4F5AF5FEA027C24BFB1E802
:100470001850A0E8185044BF18C918C0BDE8104073
:100480005FEA827C24BF51F8043B40F8043B08BF7C
:100490007047D20728BF31F8023B48BF11F8012B43
:1004A00028BF20F8023B48BF00F8012B70474FF0EF
:1004B000000200B5134694469646203922BFA0E8B4
:1004C0000C50A0E80C50B1F12001BFF4F7AF0907C0
:1004D00028BFA0E80C5048BF0CC05DF804EB8900B1
:1004E00028BF40F8042B08BF704748BF20F8022BF4
:1004F00011F0804F18BF00F8012B70474FF0013CFE
:1005000050F8042B51F8043B9A4221D1A2EB0C0382
:10051000934313EACC1317D150F8042B51F8043B42
:100520009A4215D1A2EB0C03934313EACC130BD1DF
:1005300050F8042B51F8043B9A4209D1A2EB0C036A
:10054000934313EACC13DBD04FF00000704700BF99
:10055000D01A01BAB1FA81F101F0180122FA01F0C2
:10056000CB40C1F12001DBB2C0B2C01A2CFA01F3BA
:10057000D11A914311EAC311E6D170477047704711
:10058000704710B500F088F8006810BD10B504463B
:1005900000F082F8046010BD2DE9F0470D46994641
:1005A0009246044600F124080168880604D5E069F3
:1005B00021F01001216000E00120A84201DD471B6D
:1005C00000E00027A1697A1902EB0900081AA0616E
:1005D0002078C00602D42046FFF728FE002608E057
:1005E000D4E901211AF806009047206A401C761CC5
:1005F00020624E45F4DB2078C0060AD52046FFF77E
:1006000015FE06E0D4E9012130209047206A401C05
:100610002062381EA7F10107F4DC07E0D4E90121CC
:1006200018F805009047206A401C2062281EA5F19A
:100630000105F3DC2046FFF70FFE2078000602D507
:100640000220BDE8F0870120FBE7000001694A1C99
:1006500002610878704700B58FB0CDE90131002103
:10066000059105497944CDE9031011466846FFF725
:1006700041FE0FB000BD0000E5FFFFFF0A6802F871
:10068000010B0A607047D1E900239A4202D2531C41
:100690000B60107070470000004870479002002007
:1006A00000487047900200207546FFF7F9FFAE46FC
:1006B00005006946534620F00700854618B020B56E
:1006C000FFF774FDBDE820404FF000064FF0000733
:1006D0004FF000084FF0000B21F00701AC46ACE8EA
:1006E000C009ACE8C009ACE8C009ACE8C0098D4657
:1006F000704710B50446AFF300802046BDE81040B7
:10070000FFF740BD01491820ABBEFEE726000200FE
:100710007047000070B5044600688168C943C90786
:1007200017D1816821F00101816000F0D7FE0546F4
:100730000AE000BF00F0D2FE401B022804D9206866
:100740008068C043C00706D020688068C043C007E7
:10075000F0D0002070BDA06A40F01000A062E06AF6
:1007600040F00100E062012070BD10B50146406A12
:10077000826A12F0500F05D0006A026BBDE810408B
:1007800008461047816A41F40071816201688968F6
:10079000C1F3424107290CD1017B51B9816A21F48F
:1007A00080718162816AC90403D4816A41F00101C8
:1007B000816200F001FA10BD10B5406A816A41F013
:1007C00040018162C16A41F00401C16200F0F6F9A2
:1007D00010BD10B5406A00F0F0F910BDF8B5002664
:1007E0000446009600688168C943C9072DD0816816
:1007F00041F001018160164816490068B0FBF1F034
:1008000000E0401E00900028FBD100F067FE054686
:1008100016E000BF00F062FE401B022810D92068DD
:100820008068C043C0070BD0A06A40F01000A062EF
:10083000E06A40F00100E06284F824600120F8BD25
:1008400020688068C043C007E4D10020F8BD0000E4
:100850008C00002040420F00FEE70000014800F03D
:100860006FBB0000E001002030B590F8405001243B
:10087000AC40C56B6C60046863604368102B036810
:1008800003D099600068C26030BD9A600068C160A2
:1008900030BD7047034610B50020024603E09C5C63
:1008A0006040521C92B28A42F9D310BD0348002125
:1008B0000160034981600121C16070479000002000
:1008C00000FC00083EB5174A044607CA8DE8070039
:1008D000401C03D1481C01D1501C19D00821684686
:1008E000FFF7D8FF9DF80810814211D10098A0F1C0
:1008F0007E50B0F1487F0BD80198B0F17E5F07DBE6
:100900000949884204DC0146009802F0A7FE01D89C
:1009100001203EBD00982060019860600298A060B0
:1009200000203EBD00FC00080000A0422DE9FF4170
:1009300004460020039008212046FFF7ABFF2072F9
:100940002068009060680190A068029000F0B8FCF8
:1009500003A9124800F016FC040005D000F066FC64
:10096000204604B0BDE8F0810D4D00244FEA0D078C
:10097000002357F824202946022000F061FC0600DD
:1009800003D000F053FC3046EBE7641C2D1D032C14
:10099000EEDB00F04BFC0020E3E7000090000020BD
:1009A00000FC000872B6FEE706490020C861064850
:1009B000016941F004010161016941F040010161F7
:1009C000704700007002002000200240064A00210B
:1009D000D16106490A6942F002020A614861086968
:1009E00040F0400008617047700200200020024083
:1009F000044B0022DA61044A136943F001031361D6
:100A0000018070477002002000200240144800223C
:100A1000C168CB06134904D5CA6942F00202CA6113
:100A20001022C3685B0705D5CB6943F00103CB6196
:100A300042F00402C369DB0707D0CB6943F004032B
:100A4000CB61C16921F00101C161A2F58071013959
:100A500001D0C2607047C16921F00101C1617047D6
:100A6000002002407002002070B5054600F036FDFF
:100A70000646114C09E0681C07D025B100F02EFD98
:100A8000801BA84201D9032070BDE068C007F2D1E5
:100A9000E068800601D52020E060E068C00605D44B
:100AA000E069C00702D1E068400703D5FFF7AEFF59
:100AB000012070BD002070BD00200240F8B5002468
:100AC000009490F824202546012A12D0012280F8B3
:100AD00024204A681F23072A0DD20668776B521E0E
:100AE00002EB820293409F430B6893401F4377635E
:100AF00019E00220F8BD06680D2A0AD2376BD21F12
:100B000002EB820293409F430B6893401F4337637D
:100B100009E0F76A0D3A02EB820293409F430B68AB
:100B200093401F43F7620A68072306680A2A0AD31C
:100B3000F7680A3A02EB420293409F438B68934066
:100B40001F43F76008E0376902EB420293409F437E
:100B50008B6893401F4337610A68102A01D0112A1D
:100B600020D1124B02689A4217D193681B0219D404
:100B7000936843F4000393600968102912D10C496B
:100B80000C4A0968B1FBF2F101EB8101490000E078
:100B9000491E00910029FBD104E0816A41F0200147
:100BA0008162012480F824502046F8BD00240140D1
:100BB0008C00002040420F007047704710B504467B
:100BC0000068084988420CD1204600F06BF90520E6
:100BD00000F0C6FA2046BDE810403222024900F07B
:100BE000DBB810BD002401402C0100202DE9F041AC
:100BF0004FF0000704003D467ED0A06A002628B9C9
:100C0000E66284F82460204600F07EF82046FFF774
:100C100081FDA16AC90600D420B1A06A40F010008D
:100C2000A06269E0A16A21F4885141F00201A16249
:100C30006268E169237B0A4347EA43010A43A168EA
:100C40004FF48077B94209D0012907D05FF0000145
:100C500094F814C0BCF1010F02D00AE03946F7E75E
:100C6000F3B1A36A43F02003A362E36A43F00103F4
:100C7000E3622368D3F804C02CF4694C4CEA010CFD
:100C8000C3F804C021688B68DFF870C003EA0C0366
:100C900013438B60A168B9420BD0012909D00CE045
:100CA000DFF85CC0A3690CEB43330B4343F40061F2
:100CB000DFE7218A0D05A5F580152168CB6A23F4AD
:100CC00070032B43CB62216889680E4B1940914217
:100CD00008D1E662A16A21F0020141F00101A1629E
:100CE000BDE8F081A06A20F0020040F01000A06290
:100CF000E06A40F00100E0620120F1E7FDF7E1FF6A
:100D000000E0FFFFFE0E1FFF70B586B0002506460F
:100D1000009501950295039500681A4988422ED1E5
:100D20001949886940F400708861886900F400708E
:100D30000490886940F0040088618869694600F081
:100D40000400049040200090032001900F4800F020
:100D5000CBFA104C0E48C4E900058020C4E90250CB
:100D600040002061800060612020C4E90605204623
:100D700000F090F908B1FFF715FE3462666206B024
:100D800070BD000000240140001002400008014036
:100D900008000240E00100202DE9F04789460446A2
:100DA0003B4900683B4F0E1D9046884201D0B84237
:100DB00007D1306810F4702F03D001252846BDE814
:100DC000F08794F8240001280CD0012084F8240036
:100DD0002046FFF703FD05004FF0000004D084F823
:100DE0002400EBE70220EAE7A16A40F601629143A2
:100DF00041F48071A1622168B94218D1326812F4BD
:100E0000702F14D0A16A41F48011A16231684905A4
:100E100005D5A16A21F4005141F48051A162A16A73
:100E2000C9040AD5E16A21F00601E16206E0A26A7E
:100E300022F48012A2624968E9E7E06284F82400A3
:100E4000216A15488862216A1448C862216A1448D8
:100E5000086321686FF0020008602068816841F42F
:100E600080718160216843464A464C31206A00F017
:100E70003FF920688168C1F342410729816803D0A6
:100E800041F48011816099E741F4A001FAE7000084
:100E900000240140002801406B070008D307000828
:100EA000B907000810B5044690F82400012807D0BF
:100EB000012084F824002046FFF72CFC10B113E039
:100EC000022010BD21688A6822F480728A60216A3B
:100ED00091F82120022A07D1084600F00EF8A16AF5
:100EE00030B141F04001A162002184F8241010BD0E
:100EF00021F4885141F00101F5E710B590F8211077
:100F00000022022905D00421816380F820200120DD
:100F100010BD01680B6823F00E030B6001680B68BD
:100F200023F001030B6090F84030C46B012101FAFB
:100F300003F3636080F8211080F82020104610BD74
:100F40002DE9F05FC16B0C6801680B68D0F840C0F8
:100F5000042202FA0CF2494DDFF824A1494E4A4F0F
:100F6000DFF828B1DFF828E122422CD05A072AD531
:100F70000A68920603D40A6822F004020A60016833
:100F8000A94201D1042219E0514501D1402215E0C6
:100F9000B14202D14FF4806210E0B94202D14FF465
:100FA00080420BE0594502D14FF4802206E07145A2
:100FB00002D14FF4800201E04FF080622F490839DE
:100FC0004A60C16A3BE04FF0020808FA0CF818EAE0
:100FD000040F4FF000094FF0010235D05FEA83782B
:100FE00032D50B689B0605D40B6823F00A030B600F
:100FF00080F821200168A94201D1022219E051455F
:1010000001D1202215E0B14202D14FF4007210E06C
:10101000B94202D14FF400520BE0594502D14FF4CE
:10102000003206E0714502D14FF4001201E04FF0AA
:101030000072124908394A6080F82090816A0029BC
:101040001AD0BDE8F05F0847082505FA0CF52542DF
:1010500012D01B0710D50B6823F00E030B6090F81D
:101060004010C36B02FA01F15960826380F82120BD
:1010700080F82090016BE2E7BDE8F09F0800024095
:101080001C00024030000240440002405800024070
:101090006C00024030B528B308C813491422194423
:1010A000B1FBF2F18900C1631049816302214177EC
:1010B0001A6843F6F0718A43D0E900142143D0E95D
:1010C00002452C4321430469214344692143846937
:1010D00021431143196000214163012242770177C6
:1010E000084630BD012030BDF8FFFDBF00000240C2
:1010F00070B5044690F82000002501280CD001208E
:1011000084F8200094F821600020012E06D084F895
:1011100020000225284670BD022070BD022684F8FA
:101120002160A0632068066826F00106066020465C
:10113000FFF79AFBE06A00282068016802D041F0BE
:101140000E0106E021F0040101602068016841F011
:101150000A0101602068016841F001010160D9E7DE
:1011600070B5044600F0BAF90546601C02D0044888
:101170000078044400F0B2F9401BA042FAD370BDDD
:10118000800000202DE9F047054626480F4601263D
:10119000017E01290FD00121814601762868DFF800
:1011A00088804CF25034022808D0A2462046FFF72F
:1011B0005BFCA8B131E00220BDE8F0872046FFF7D4
:1011C00053FC08BB0120FFF7EFFB2046FFF74CFC68
:1011D000D8F81010064621F00401C8F810101CE0E1
:1011E0004FF0FF303860AC6811E02046FFF7EEFBAF
:1011F0005046FFF739FCD8F81010060021F0020124
:10120000C8F8101001D03C6007E004F58064D5E90F
:10121000020100EB8120A042E7D8002189F81810D4
:101220003046C9E7700200200020024003480169EF
:1012300041F0800101610020704700000020024061
:101240002DE9F05F07461C4888460024017E1546BC
:101250001E46012909D00121814601764CF2503AFF
:101260005046FFF701FC18B122E00220BDE8F09FD4
:10127000012F02D0022F00D00427D346DFF83CA074
:10128000220128463146FEF7A3FF81B208EB440055
:10129000FFF7AEFB5846FFF7E7FBDAF8102022F025
:1012A0000102CAF8102018B9641CE4B2BC42E7D3AA
:1012B000002289F81820D9E770020020002002409F
:1012C000064900200A69120607D5054A4A60054A00
:1012D0004A600969090600D50120704700200240D4
:1012E00023016745AB89EFCD2DE9F84FDFF8B891C1
:1012F0000024A9F1040B23460F2709F1040AABF1DE
:10130000040EC9E00125A5402A40AA427DD1674EBE
:10131000D1F804C0ACEB0608B44532D014DCBCF103
:10132000030F3AD009DCBCF1000F2AD0BCF1010F49
:101330001CD0BCF1020F31D11DE0BCF1110F17D050
:10134000BCF1120F2AD119E0B8F5881F19D006DCBC
:10135000B8F5803F15D0B8F5801F1FD111E0B8F562
:10136000001F0ED0B8F5041F18D10AE0CB6815E0B5
:10137000CB681B1D12E0CB6808330FE0CB680C3341
:101380000CE08B682BB1012B4FF0080303D04561B3
:1013900004E0042302E0056100E00023FF2A01D8F5
:1013A000064601E000F104064FEA840501D9A5F1E3
:1013B0002005D6F8008007FA05FC28EA0C0803FA95
:1013C00005F548EA0508C6F800804D68ED0062D5CD
:1013D000374DAE6946F00106AE61AD6924F00306F3
:1013E00005F001050095334D06EB050CDCF80850BF
:1013F000A607360F07FA06F825EA0805DFF8B880D1
:10140000404503D14FF0000817E044E0DFF8AC801E
:10141000404502D14FF001080FE0DFF8A4804045BD
:1014200002D14FF0020808E0DFF89880404502D171
:101430004FF0030801E04FF0040808FA06F848EA04
:101440000508CCF808804D68D9F80060ED024D46DB
:1014500001D5164300E096432E604D68DAF800602F
:10146000AD02554601D5164300E096432E604D6807
:10147000DBF80060AD035D4601D5164300E09643FE
:101480002E604D68DEF80060ED03754601D5164309
:1014900000E096432E60641C0D682A46E5407FF408
:1014A00031AFBDE8F88F00000804014000001110C2
:1014B000001002400000014000080140000C014003
:1014C00000100140001401408068084000D0012055
:1014D00070470AB1016170470904FBE70148806861
:1014E00070470000800000200248816802781144A3
:1014F0008160704780000020074810B5016841F006
:1015000010010160032000F075F80F2000F006F8CC
:1015100000F024F8002010BD0020024070B50D4DF1
:1015200004464FF47A712878B1FBF0F00A49096853
:10153000B1FBF0F000F032FB48B9102C07D20022CA
:101540002146501E00F036F800206C6070BD01206E
:1015500070BD0000800000208C0000200C4808B501
:10156000816941F001018161816901F0010100910E
:10157000C16941F08051C161C06900F080500090A4
:101580000448416821F0E06141F00071416008BD0C
:101590000010024000000140002809DB00F01F029B
:1015A000012191404009800000F1E020C0F80011C5
:1015B00070470000F0B40E4B1B680C46C3F30223C7
:1015C000C3F10705042D00D90425191D072901D2EF
:1015D000002300E0DB1E012606FA05F1491E21402A
:1015E00099409E40761E16403143F0BC01F09DBAF2
:1015F0000CED00E0064900F0070208684FF6FF0313
:10160000184040EA0220034A104308607047000077
:101610000CED00E00000FA052DE9F84305460078DE
:10162000354CC00754D0E0690026C00008D4E069FA
:1016300040F08050E061E069012600F080500090A9
:101640002E480168C90512D40168804641F48071B2
:101650000160FFF743FF074605E000BFFFF73EFFCD
:10166000C01B642823D8D8F80000C005F6D5206A2E
:1016700010F4407021D0A98801F4407181421CD03F
:10168000206A1F49012220F440700A6000220A608B
:101690002062C00711D0FFF721FF074641F28838CA
:1016A00008E000BFFFF71AFFC11B414502D9032024
:1016B000BDE8F883206A8007F4D5206A696820F4C1
:1016C0004070084320621EB1E06920F08050E06164
:1016D0002878800705D56068A96820F44040084351
:1016E00060602878C00605D56068E96820F480004D
:1016F000084360600020DBE70010024000700040FB
:10170000400442422DE9F0470F46050061D0434EA8
:10171000306800F00700B84209D2306820F00700B6
:1017200038433060306800F00700B84251D1286873
:101730003B4C810712D5400703D5606840F4E06058
:1017400060602878000703D5606840F460506060EE
:101750006068A96820F0F000084360602878C0073E
:1017600028D06868012810D02168022810D0890785
:1017700000292EDA616821F0030101436160FFF75F
:10178000ADFE804641F288390DE021688903EFE71C
:101790008901EDE7FFF7A2FEA0EB0801494502D958
:1017A0000320BDE8F0876068696800F00C00B0EBCA
:1017B000810FEFD1306800F00700B8420BD93068D4
:1017C00020F0070038433060306800F00700B8426E
:1017D00001D00120E5E72878400705D56068E96871
:1017E00020F4E060084360602878000706D5606850
:1017F000296920F4605040EAC100606000F018F8E8
:101800006168084AC1F30311515CC8400649086089
:1018100006480068FFF782FE0020C2E70020024071
:1018200000100240D63C00088C00002084000020FC
:101830000E4A51680E4801F00C03042B11D0082BFE
:101840000FD10C48C1F38343C903C05C0AD551686A
:10185000084AC1F34041921E515C054A5043B0FB17
:10186000F1F07047044948437047000000100240FF
:1018700000127A00C63C000800093D002DE9F84F2F
:10188000040070D02078C04DC00749D06868C0F30C
:101890008100012807D06868C0F38100022809D1BF
:1018A0006868C00306D52868800339D560680028B9
:1018B000E7D035E06068B0F5803F0BD010B1B0F5EF
:1018C000A02F11D0286820F480302860286820F4E8
:1018D000802002E0286840F480302860606890B181
:1018E000FFF7FCFD06460AE0286840F480202860E7
:1018F000F0E700BFFFF7F2FD801B642873D828686B
:101900008003F7D50CE0FFF7E9FD064605E000BFD0
:10191000FFF7E4FD801B6428F0D828688003F7D423
:1019200020789A4E80074FF001094FF0000839D512
:10193000686810F00C0F07D06868C0F381000228B7
:1019400009D16868C00306D42868800714D52069C7
:10195000012808D110E02069B0B1C6F80090FFF767
:10196000BDFD074605E00AE1FFF7B8FDC01B0228F0
:10197000C4D828688007F7D52868616920F0F80086
:1019800040EAC10028600DE0C6F80080FFF7A6FD20
:10199000074604E0FFF7A2FDC01B022823D82868F1
:1019A0008007F7D4207800072CD57948A169D9B1F0
:1019B000C0F80090FFF792FD074604E0FFF78EFDA8
:1019C000C01B02280FD8686A8007F7D571484FF40A
:1019D000FA510068B0FBF1F0009000BF0098411E82
:1019E0000091FAD20EE080E0C0F80080FFF776FDAB
:1019F000074604E0FFF772FDC01B022875D8686A2D
:101A00008007F7D42078400760D5E8690027C00038
:101A100008D4E86940F08050E861E869012700F0E7
:101A2000805000905C480168C90513D40168834662
:101A300041F480710160FFF751FD824606E000BF6E
:101A4000FFF74CFDA0EB0A0064284ED8DBF800003D
:101A5000C005F5D5E06801280AD008B1052813D0E3
:101A6000286A20F001002862286A20F0040002E0C1
:101A7000286A40F001002862E06841F2883B98B192
:101A8000FFF72CFD82460BE0286A40F00400286234
:101A9000EEE700BFFFF722FDA0EB0A0159455AD837
:101AA000286A8007F6D50CE0FFF718FD824605E0AE
:101AB000FFF714FDA0EB0A0159454CD8286A8007AE
:101AC000F6D41FB1E86920F08050E861E06988B37E
:101AD0006968C1F38101022944D00228C6F86080F8
:101AE00004D0FFF7FBFC044638E034E0FFF7F6FCD7
:101AF000074604E0FFF7F2FCC01B02282BD8286839
:101B00008001F7D4206AB0F5803F05D16868A168EC
:101B100020F4003008436860D4E90801084369688C
:101B200021F4741108436860C6F86090FFF7D6FC92
:101B3000044606E025E000BFFFF7D0FC001B0228AA
:101B400009D828688001F7D51BE000BFFFF7C6FC65
:101B5000001B022802D90320BDE8F88F2868800105
:101B6000F4D40EE00128F7D06868226A00F48031CE
:101B7000914204D1616A00F47010884201D00120C2
:101B8000EAE70020E8E700000010024000004242BF
:101B9000800442428C0000200070004010B5401EBE
:101BA000B0F1807F01D3012010BD4FF0E0246061CF
:101BB0000F21601700F0B9FF0020A061072020610D
:101BC000002010BD70B590F83C20012A26D00124D9
:101BD00080F83C40022280F83D2003685A689D68E6
:101BE00022F070060A6832435A600D4B02689A422E
:101BF00008D0B2F1804F05D00A4B9A4202D00A4B6E
:101C00009A4204D1496825F080031943916080F815
:101C10003D40002180F83C10084670BD022070BD98
:101C2000002C0140000400400008004000B585B0D1
:101C30000021009101910291039100680B498842B3
:101C400011D10B48816941F00801816180696946C1
:101C500000F0080004900120009002200190039001
:101C60000448FFF741FB05B000BD00000004004040
:101C700000100240000C014070B5044690F83C0092
:101C800000260D4601280FD0012084F83C006AB1DF
:101C9000042A1DD0082A2FD00C2A3FD0012600206C
:101CA00084F83C00304670BD022070BD206800F012
:101CB0008DFE2068816941F0080181612068816999
:101CC00021F004018161206881692A69114311E0D2
:101CD000206800F0A3FE2068816941F40061816101
:101CE0002068816921F480618161206881692A69A5
:101CF00041EA02218161D2E7206800F0BBFE206842
:101D0000C16941F00801C1612068C16921F0040185
:101D1000C1612068C1692A69114311E0206800F09F
:101D2000D5FE2068C16941F40061C1612068C169C4
:101D300021F48061C1612068C1692A6941EA0221F8
:101D4000C161ACE710B5040003D094F83D0010B1B8
:101D500007E0012010BD002084F83C00204600F080
:101D60001FF8022084F83D00211D206800F0E4FDEA
:101D7000012084F8460084F83E0084F83F0084F88F
:101D8000400084F8410084F8420084F8430084F85D
:101D9000440084F8450084F83D00002010BD000098
:101DA00008B500680649884208D10648C16941F073
:101DB0000201C161C06900F00200009008BD00008E
:101DC000000400400010024010B50446022249B150
:101DD00004290ED0082913D094F84100012816D008
:101DE000012010BD94F83E000128F9D184F83E206E
:101DF0000FE094F83F000128F2D184F83F2008E07A
:101E000094F840000128EBD184F8402001E084F8E8
:101E100041200122206800F0CBFD0F492068884254
:101E200003D1426C42F4004242642068884208D0E8
:101E3000B0F1804F05D00949884202D00849884254
:101E400004D1816801F00701062903D0016841F03F
:101E500001010160002010BD002C01400004004081
:101E600000080040FEE70020401CC0B21428FBD34D
:101E700070470000114810B5816986B041F0080133
:101E8000816180690E4C00F008000490C020009031
:101E90001120019001200290032003906946204602
:101EA000FFF722FA012240212046FFF712FB012210
:101EB00080212046FFF70DFB06B010BD0010024048
:101EC000000C014070B5154E05460024280601D5CA
:101ED000012200E0002280213046FFF7FAFAFFF7E6
:101EE000C2FF012240213046FFF7F3FAFFF7BBFFA4
:101EF000002240213046FFF7ECFAFFF7B4FF6806F6
:101F0000641C050EE4B2082CE0D301228021304687
:101F1000FFF7DFFABDE87040FFF7A5BF000C0140F6
:101F200010B50E4C012280212046FFF7D2FA012283
:101F300040212046FFF7CDFAFFF795FF00228021D0
:101F40002046FFF7C6FAFFF78EFF00224021204609
:101F5000FFF7BFFABDE81040FFF785BF000C014056
:101F600010B50F4C002240212046FFF7B2FAFFF7D0
:101F70007AFF002280212046FFF7ABFAFFF773FFBC
:101F8000012240212046FFF7A4FAFFF76CFF01224F
:101F900080212046FFF79DFABDE81040FFF763BFA0
:101FA000000C014070B5104D012280212846FFF73A
:101FB00090FAFFF758FF012240212846FFF789FADF
:101FC000FFF751FF80212846FFF77EFA08B1012470
:101FD00000E00024002240212846FFF77AFAFFF7AC
:101FE00042FF204670BD0000000C01403EB50024B9
:101FF00011480094019402940E4984600160012507
:102000000573047505614FF460214460C161FEF7FA
:10201000EDFD08B1FEF7C6FC0620CDE900056946D6
:1020200002940548FEF74AFD002801D0FEF7BAFCED
:102030003EBD000000240140B0010020094808B561
:10204000416941F0010141614069002200F0010055
:10205000009011460B20FFF7ADFABDE808400B20B9
:10206000FFF79ABA00100240F0B585B000243B4853
:102070000094019402940394816941F020018161EC
:10208000816901F020010491816941F004018161BD
:10209000816901F004010491816941F008018161C5
:1020A000816901F008010491816941F010018161A9
:1020B00080692B4E00F0100004900022B6213046BB
:1020C000FFF707FA274F002247F202013846FFF7D1
:1020D00000FA701401258DE8310069462248FFF7A7
:1020E00003F9E8030090694602953846FFF7FCF8CB
:1020F000E8020090694602943846FFF7F5F8A80216
:102100000090694602943846FFF7EEF80220CDE9C8
:1021100002400620CDE9000569463046FFF7E4F8A5
:102120002803009069463846FFF7DEF8B02000909B
:1021300069463046FFF7D8F846F20200009069463B
:102140003846FFF7D1F80320CDE901044020009084
:1021500069463046FFF7C8F805B0F0BD00100240F0
:1021600000080140000C01400010014010B58AB089
:10217000002407941C2168460894FEF798F9164835
:10218000144901604721C0E9011440F2E731C0E978
:1021900003148461FFF7D6FD08B1FEF703FC079432
:1021A00007A90D480894FFF70DFD08B1FEF7FAFBEB
:1021B0006020CDE900040294082269460648049490
:1021C000FFF75AFD08B1FEF7EDFB0348FFF72EFDC0
:1021D0000AB010BD00040040240200202DE9F047A1
:1021E0001E4A1D4B86B0917843F821000520491CFA
:1021F000B1FBF0F300FB13109070142216496846EF
:10220000FEF723F94FF005086E460025A8F1010AF4
:102210001BE00024A8EB05077F1E12E006EB8409F3
:1022200056F82400D9F8041001F018FB07D256F82C
:102230002400D9F8041046F82410C9F80400641CDE
:10224000E4B2A742EADC6D1CEDB25545E1DB029831
:1022500006B0BDE8F0870000180100200000002053
:10226000FEE7000010B508210548FFF7ADFD01228B
:1022700080210448FFF72DF9BDE8104000F022B896
:10228000240200200008014070B50446642800D9EB
:1022900064240A4D012210212846FFF71AF9002272
:1022A00020212846FFF715F940F2E7304443642027
:1022B000B4FBF0F002490968C86370BD0008014032
:1022C0002402002010B5084C002210212046FFF700
:1022D00000F9002220212046FFF7FBF803490020E7
:1022E0000968C86310BD00000008014024020020F6
:1022F000FEE700000021074A084600BF32F8103010
:10230000401C19443228F9DB3220B1FBF0F080B2D6
:10231000704700002C0100202DE9F041114E757826
:1023200025B100273C46DFF840800BE00F48BDE8B0
:10233000F08100BF58F82410384600F0F1FF641C0B
:102340000746E4B22846AC42F4D301F073F90146E3
:10235000384601F059F800F0D5F9B168BDE8F04110
:1023600000F0DEBF00000020A00000200000C841F7
:1023700070B5FFF7BFFF01F05DF904464FF07E55E1
:102380001848AC4201DC2C4602E0844200DB164CCB
:10239000214601F095FA0146204601F035F813492F
:1023A00001F090F900F0E4FB0646014601F08AF9DD
:1023B000314601F087F90E4901F084F904460D49D0
:1023C000304601F07FF90C4900F0AAFF214600F0E9
:1023D000A7FF0146284601F017F8BDE870400749FD
:1023E00001F06EBA00F07F4500E07F4500401C46DA
:1023F000A873BC33E37A75390203943A3393884364
:10240000FFF78ABF01498860704700000000002084
:1024100070B578211248FEF74AF811481421783037
:10242000FEF745F80F4C002525706570A570FFF785
:1024300055F86060FFF752F820610B48A5606061B5
:102440000A48FEF72FFD064932228C310748FEF775
:10245000A3FC002803D0BDE87040FEF7A3BA70BD0E
:10246000A0000020000000200000C841B0010020B2
:1024700010B5FFF733F80D4C6168411A642914D385
:102480006060FFF775FFFFF7A9FE094A217842F85F
:1024900021001E20491CB1FBF0F200FB121020703D
:1024A00060781E2801D2401C607010BD0000002022
:1024B000A000002070B500242146002000F099F80B
:1024C0000025002000F004F96D1CEDB2802DF8D33A
:1024D000641CE4B2082CEFD370BD00002DE9F04776
:1024E000164680460C46CF18DDF8209015E0072CE4
:1024F00015D82146404600F07CF8002509E000BFD1
:1025000008EB05007F2806D8484600F0E1F86D1C6E
:10251000EDB2B542F4D3641CE4B2A742E7D8BDE8FB
:10252000F0870020AFF3008010B50446FFF7A2FC4F
:102530006420FEF715FEAE2000F0B1F8D52000F0C3
:10254000AEF8802000F0ABF8A82000F0A8F83F20FB
:1025500000F0A5F8D32000F0A2F8002000F09FF8CA
:10256000402000F09CF88D2000F099F8142000F035
:1025700096F8202000F093F8002000F090F824B1A5
:10258000A12000F08CF8C82003E0A02000F087F81C
:10259000C02000F084F8DA2000F081F8122000F06A
:1025A0007EF8812000F07BF8CF2000F078F8D92069
:1025B00000F075F8F12000F072F8DB2000F06FF801
:1025C000402000F06CF8A42000F069F8A62000F08C
:1025D00066F8D52000F063F8802000F060F8AF20A6
:1025E00000F05DF86420FEF7BBFDBDE81040FFF78A
:1025F00061BF10B50446B031C8B200F050F81020E9
:1026000040EA141000F04BF804F00F00BDE8104051
:1026100000F045B870B5A2F120035F2B00D33F2234
:10262000203AD5B25E2D00D900257A2802D9491C5E
:102630000020C9B2FFF7DDFF064905EB4500002485
:1026400001EB4005285D00F043F8641CE4B2062C61
:10265000F8D370BD8A3A00082DE9F0411F461600F4
:102660000D46044619D015E07A2C05D96D1C0024BE
:10267000EDB2072D00D90725012F02D0022F06D079
:1026800007E029462046FFF7C5FFA41D00E00834F7
:10269000E4B2761C3278002AE6D1BDE8F08110B5AC
:1026A0000446FFF73DFC7820FFF70CFCFFF77AFCAF
:1026B00050B90020FFF706FCFFF774FC20B9204654
:1026C000FFF700FCFFF76EFCBDE81040FFF748BCC9
:1026D00010B50446FFF724FC7820FFF7F3FBFFF763
:1026E00061FC50B94020FFF7EDFBFFF75BFC20B920
:1026F0002046FFF7E7FBFFF755FCBDE81040FFF76A
:102700002FBC70472DE9F041364C8046216800F01F
:10271000A5FF17D82768A068394601F0D1F8666888
:1027200005463146E06801F0CBF8294600F06CFE22
:1027300004463946404601F0C3F8214600F0C2FF86
:10274000314644E04046A16A01F088F817D8A56AEE
:10275000216A284601F0B4F8616AE46A0646204618
:1027600001F0AEF8314600F04FFE064629464046DD
:1027700001F0A6F8314600F0A5FF214627E000252C
:10278000404654F8351001F069F824D804EBC50030
:102790008168404600F062FF1DD854F8356004EBB4
:1027A000C5043146A06801F08BF8676805463946D4
:1027B000E06801F085F8294600F026FE044631461F
:1027C000404601F07DF8214600F07CFF3946BDE827
:1027D000F04100F0A5BD6D1C052DD1D34046BDE8EC
:1027E000F0810000180000207047000038B5012477
:1027F0000D4610F1FF4F02D3A41E80F000400D499A
:1028000000F060FF4FF07C5100F08AFD00F0BEFE4A
:102810000A2190FBF1F390FBF1F201FB1200002C76
:10282000009001DA04A200E005A20A212846FDF783
:10283000E3FC38BD000020412D25642E25640000F6
:1028400025642E25640000007FB5154CE079002832
:1028500023D0FEF743FEE169401A40F6B8318842C2
:102860001BD3206901906069029001A8FEF75EF811
:102870004FF0010390B10BA206211420FFF7ECFEEC
:102880000025E5714FF4FA60FEF76AFC01233C2253
:10289000062114200095FFF721FE7FBD04A2EBE77F
:1028A0004800002053415645204641494C21000034
:1028B0005341564544210000FEF716BE30B593B093
:1028C00028216846FDF7F3FD14210AA8FDF7EFFD66
:1028D000002501200F9510951195010412958DE8A2
:1028E000230004904FF4E010CDE90810022407946F
:1028F0006846FEF7C3FF08B172B6FEE70AA90F20CB
:1029000081E831004FF48060CDE90D0502210AA86D
:10291000FEF7F8FE08B172B6FEE74FF400401190E2
:102920000F940FA8FEF778FE002801D072B6FEE7DC
:1029300013B030BD70470000F0B50268194B1A4C57
:102940001A4D4FF08047984205D0B84203D0A042BC
:1029500001D0A84203D122F070064A68324398425F
:1029600005D0B84203D0A04201D0A84203D122F43E
:102970004074CA6822434C6922F0800222430260FC
:102980008A68C2620A688262984201D10969016359
:10299000012141610169C90703D0016921F00101E9
:1029A0000161F0BD002C014000040040000800401F
:1029B00010B501F01F030121046A99408C430462A1
:1029C000016A9A401143016210BD000030B5036AEC
:1029D000026A22F0010202624268846924F07305EF
:1029E0000C682C4323F002058B682B430A4DA84248
:1029F0000BD123F00805CB6822F440722B434D69BC
:102A000023F0040315438A692A43426084614968BC
:102A10004163036230BD0000002C014030B5026A02
:102A2000036A23F010030362436884690D6824F489
:102A3000E64444EA05248D6822F0200242EA0512A9
:102A40000B4DA8420ED1CD6822F0800242EA051259
:102A50004D6923F4406343EA85038D6922F0400207
:102A600043EA85034360846149688163026230BD43
:102A7000002C014030B5036A026A22F480720262BF
:102A80004268C46923F4007324F073050C682C4376
:102A90008D6843EA05230C4DA8420ED1CD6823F47E
:102AA000006343EA05234D6922F4405242EA0512CD
:102AB0008D6923F4806342EA05124260C46149686B
:102AC000C163036230BD0000002C014030B5046AD0
:102AD000026A22F4805202624268C3690D6823F4DC
:102AE000E64343EA05238D6824F4005444EA0534A0
:102AF000064DA84204D14D6922F4804242EA851273
:102B00004260C36149680164046230BD002C014029
:102B100070B5044D002420462C62FFF773FC2C7224
:102B200070BD000048000020FEE70907090E0028DC
:102B300004DB00F1E02080F80014704700F00F0083
:102B400000F1E02080F8141D704700214FF07E5006
:102B500000F05ABC012100F05ABF0021084600F0E5
:102B600053BC30380A2801D201207047002070473A
:102B70002DE9F0410026A0F50001B1F1FE4F7DD214
:102B800000F500226FF07E0101EBE251C2F3025426
:102B900077184FF07E52A0EBC15602EB045557EA6E
:102BA000040047D02946304600F0BAFB804629464B
:102BB000304600F085FE414600F026FC0546014601
:102BC00000F080FD8046454900F07CFD444900F05E
:102BD000A7FB06464146284600F074FD314600F04A
:102BE00071FD0646384600F00DFD07463D4900F0F0
:102BF00069FD3D49794451F8241000F091FB3146BC
:102C000000F08EFB06460121284600F000FF314609
:102C100000F086FB05463846344900F053FD344940
:102C2000794451F8241000F07BFB2946BDE8F041BF
:102C300000F076BB4FF07E51304600F041FE054675
:102C40002C4900F03FFD2C4900F06AFB294600F0BA
:102C500039FD2A4900F064FB294600F033FD6FF08E
:102C6000824100F05DFB04462946084600F02AFD3B
:102C7000214600F027FD0146284600E003E0BDE8BC
:102C8000F04100F04DBB4FF07F42B2EB400F03D25A
:102C9000BDE8F041FFF75EBFB0F1FF4F08BFBDE8F0
:102CA000F081B0F1004F06D90120FDF76FFCBDE8BF
:102CB000F041FFF752BF30F0004105D06FF016062B
:102CC000172100F0A4FE5BE70220FDF75FFCFFF791
:102CD0003CFF80F00040BDE8F081000066F1CC3E92
:102CE000AAAA2A3FF4FD0538101100000070313FF8
:102CF000C410000021ED423E0A1180BEC1ABAA3EC5
:102D00008EB0FEF7F9FBFFF7D9FDFFF7ADF9FFF73E
:102D100095F9FFF76BF9FFF729FAFFF702FC01209D
:102D2000FFF702FCFFF7C6FB0123FEA219460A20AB
:102D3000FFF792FC40F2DC50FEF712FA0123FEA2EC
:102D400019460520FFF788FC00244FF496761425D9
:102D50003046FEF705FA04EB840005EB4000C0B2F4
:102D60000123F9A20321FFF777FC641C032CEFDB9E
:102D70004FF4FA784046FEF7F3F9FFF79BFBFDF7B7
:102D800095FD07A8FDF79EFDF04C38B30123F0A296
:102D900002210A20FFF760FC4FF47A7B5846FEF7C9
:102DA000DFF9FFF787FBFFF733FBFFF75BFA4FF421
:102DB000FA60FEF7D5F9FFF7ABFE0126A671DFF842
:102DC000A093DFF8A0A30025FEF788FB616A411AF3
:102DD00032290AD20120FEF7C3F9F5E707982061EE
:102DE00008980123E0A26061D2E76062A16A411AFB
:102DF000642909D3A062FFF73BFBFFF701FBA06149
:102E0000207A08B1FFF784FE4FF400415046FEF7E8
:102E10005BFB0746FEF762FB617A89B9012F0FD190
:102E2000E16A411A14290BD3E0622179012901D00A
:102E3000022901D1E671E06161B101290CD025714F
:102E40006772A079002804D02079012807D00228D1
:102E500005D084E02671F3E702202071F0E7C7482F
:102E60000090FEF73BFB01904FF400615046FEF7E7
:102E70002BFB0746207B012819D1C7B9E6710198C1
:102E8000E0612079009901281CD0606900F048FABF
:102E9000BB496061884200DD6161D4E9041000F043
:102EA000DDFC04D8B549206900F00AFD6061277394
:102EB0004FF480615046FEF707FB0746607B012810
:102EC00013D04BE0206900F02BFAAD492061884215
:102ED00000DD2161D4E9040100F0C0FBE7D8A74977
:102EE000606900F01DFA2061E1E76FBBE6710198AF
:102EF000E0612079009901280ED0606900F0E0FCC3
:102F0000606100909D49206900F0DAFC009900F0B2
:102F1000A5FB1AD360691DE0206900F0D1FC206197
:102F200000909649606900F0FBF9009900F096FC6A
:102F300001D3206904E09149606900F0F1F9206152
:102F400010F1FF4F0AD3256108E08C49206900F099
:102F5000B7FC606110F1FF4F00D3656167734FF4F8
:102F600000518848FEF7B0FA0746A07A01280DD133
:102F700067B9FEF7B3FA216B401AC82806D9FEF7E5
:102F8000ADFA2063607978B100206071A772A769FB
:102F90002169384600F062FC08D20022022148462E
:102FA000FEF797FA01220EE00120EEE7D4E90510C2
:102FB00000F054FB4FF001024FF00201484611D2DD
:102FC000FEF787FA002204214846FEF782FAFEF750
:102FD00085FA0246B0FBFBF00BFB1020404508D9F8
:102FE000012207E0FEF775FA012204214846FEF7A8
:102FF00070FA00224FF480515046FEF76AFA607969
:10300000B8B16149A069884201DA0A200CE05F4A40
:10301000904201DD642007E000F052FC5C4900F0C2
:1030200051FB00F0CFFA0A302070C0B2FFF72CF944
:1030300002E02570FFF746F9FFF706FCFEF74EFAAF
:10304000616B401A40457FF6C8AEFEF747FA6063F1
:103050000AA93846FFF7CAFB01A92069FFF7C6FB9A
:1030600004A96069FFF7C2FB2179E078814204D0AE
:10307000FFF720FAE6722079E0702079E8B10128A4
:103080004ED002287FF4A9AEE07A40B1FFF712FAE1
:10309000012340A200210A20FFF7DEFAE572012396
:1030A00004AA02211E20FFF7D7FA052101233DA221
:1030B0004FEA0100FFF7D0FA86E6E07AF8B1002186
:1030C000E57201233BA20846FFF7C6FA01233DA2A1
:1030D00002210020FFF7C0FA01233FA204210020B3
:1030E000FFF7BAFA012340A206210020FFF7B4FA45
:1030F0004048057085720575FF20A07060703D49DD
:103100000AA8FDF7FBF960B10123282200211E2047
:103110000095FFF7E3F9012300210AAA1E206BE0C6
:10312000DEE06FE0534D41525420544845524D4F1C
:103130004D45544552000000494E495449414C49BF
:103140005A494E47000000002E00000048000020B1
:103150005553452044454641554C54205345540051
:1031600000080140000C01404C4F4144205345549D
:1031700054494E4753204F4B00000000CDCCCC3D6E
:103180000000A042001001400000C8410000484279
:1031900066666640536574204C4F572054656D70C9
:1031A0000000000052616E67653A20302D383020F3
:1031B0004300000054656D703A202020202020201C
:1031C000430000004D6F64653A202020202020201D
:1031D0002020202500000000413A20202020423AF3
:1031E000202020200000000052554E4E494E472E10
:1031F0002E2E000090010020FFF72EFA0AA93F486A
:10320000FDF7FFF86179A078814212D001231422E2
:1032100002211E200095FFF761F9607908B138A2FC
:1032200000E038A2012302211E20FFF715FA607981
:10323000A07023786078834213D033A204210DA8B4
:10324000FCF7DAFF0123142202213C200095FFF74E
:1032500045F901230DAA02213C20FFF7FDF9207852
:103260006070264901A80A31FDF748F988B10123A9
:10327000192204210A200095FFF730F9012301AA41
:1032800004210A20FFF7E8F91C4801A90A30FDF7DC
:10329000B8F81A4904A81431FDF730F988B10123B0
:1032A000192204212D200095FFF718F9012304AA03
:1032B00004212D20FFF7D0F9104804A91430FDF7A0
:1032C000A0F8E07920B10123062110A25A20F1E6EE
:1032D00001230A2206215A200095FFF7FFF873E523
:1032E000E07A40B1FFF7E6F8012309A200210A20A5
:1032F000FFF7B2F9E572012301AAD2E6900100209E
:103300004F4E20004F464600253364002A0000003F
:1033100053657420484947482054656D700000008B
:1033200090EA010F48BF81F0004100F1D082421ABB
:103330003CBF801A89184FEAD0524FF07F4C1CEAEC
:10334000410FA2EBD15318BF9CEA026F00F03B8003
:103350004FF0004C4CEA00204CEA012121FA03FC1A
:1033600010EB0C0C1ED202F1FF325FEA1C2040EB86
:10337000C25038BF70471CF07F0F4FEA400C18BF97
:10338000BCF17F4F38BF7047C3F12003994008BF9D
:1033900020F00100BCF17F4F38BF7047A0F1C04062
:1033A00000F057BA4FEA3C00000A40EBC25028BF79
:1033B0001CF0FF0F4FEA400CE6D018BFBCF17F4F66
:1033C00038BF7047EAE79CEA026F05D010EA5C0F4D
:1033D00008BF00F00040704710B500F0F4F900BFDE
:1033E00064FBBE3E014800F0E0BA00BF0000C07FB1
:1033F000401058BFC0F14040491058BFC1F1404192
:103400008142EFF3008070474FF47F0C1CEAD0122A
:103410001EBF1CEAD11392EA0C0F93EA0C0F00F0C6
:10342000858090EA010F48BF42F4807240F4000C9E
:1034300041F400002CF07F4120F07F4000B5814234
:10344000A2EB03020FF2081CACEB504EC0F10000DF
:103450009EF800E04FEA4E0E00FB0EFC38BF49001C
:103460004FEA2C1C02F5FA020CFB0EF34FEACE1EBB
:103470004FEA112C4FEAC1210EEB635E42EB224270
:103480000EFB0CFC4FEA1C5300FB03114FEA112CFE
:103490004FEA01310EFB0CFC4FEADC4C00FB0C1137
:1034A000C14228BF09184CEB03335DF804EB10EB65
:1034B000410143EBC250B2F57C0F38BF704729D5AC
:1034C00012F0F00F1CBF00F1C04000F00040704748
:1034D000008182838485868788898B8C8D8E8F91ED
:1034E0009293959697999A9C9D9FA0A2A3A5A7A811
:1034F000AAACAEB0B2B3B5B7B9BCBEC0C2C5C7C93D
:10350000CCCED1D4D7D9DCDFE2E6E9ECF0F3F7FAA0
:10351000FE0000004FEA400C0CF1807CBCF17E4FB5
:1035200028BF7047B0F1C04000F093B990EA010F96
:103530000CEAD11348BF42F48072624538BF63453C
:1035400007D213F47F0F16D080EA010000F000408C
:10355000704710B500F037F9097EFC3E00F005B861
:1035600080EA010000F00040704780EA010000F0AE
:10357000004000F06EB912F47F0F04BF024870479C
:1035800080EA010000F065B90000C07F41000B0E29
:10359000D3F19E0208D950F400034FEA032323FA23
:1035A00002F048BF4042704710B500F00CF900BF70
:1035B00049922480002070476FF0004282EA200088
:1035C00070470000C10DD1F19E0206DB4FEA0023D7
:1035D00043F0004323FA02F07047004207D54FEA58
:1035E0004001B1F1FE4F02D24FF00000704710B51C
:1035F00000F0E9F849922480002070476FEA20002B
:103600007047000010F0004148BF4042B0FA80F31C
:1036100010FA03F2C3F19D030BD051EAC35101EB41
:103620001220530638BF704700F1010008BF20F098
:1036300001007047B0FA80F310FA03F2C3F19D0362
:103640000AD0D90501EB1220530638BF704700F1AC
:10365000010008BF20F001007047000050EA010C93
:1036600000F113801CF5000F58BFBCF5000F01D40A
:103670008842704707D710F5000F58BF11F5000FAB
:1036800015D488427047894270471CF5000F04D555
:10369000BCF5000FF7D5814270474FF0807C1CEBE2
:1036A000400F38BF1CEB410F01D28142704710B56B
:1036B00000F089F8922449004FF000504FF08051FB
:1036C000FFF796BE4FF47F0C1CEAD0121EBF1CEA17
:1036D000D11392EA0C0F93EA0C0F00F0478090EAA6
:1036E000010F48BF42F480724FF0004C4CEA0020BA
:1036F0004CEA012102EB0302A0FB0113A2F5000238
:10370000002918BF43F001035B0028BF4FEA3303D1
:1037100042EB22425FEA132C4CEBC2502EBFBCEBB3
:10372000436FB2F57C0F70474FEA036CBCF1004F5A
:1037300008BF20F00100B2F57C0F38BF70470BD5F1
:1037400082F0FF0212F5803FC8BF704700F1C04011
:10375000D8BF00F00040704700F5000C5FEA4C0C49
:1037600048BF7047B0F1C04000F073B890EA010F55
:103770000CEAD11348BF42F48072624538BF6345FA
:1037800004D280EA010000F00040704710B500F05C
:103790001AF800BF8900013E00F007B800F009B830
:1037A0005FEA410C5FEA1C6C08D080EA010000F07F
:1037B00050B85FEA400C5FEA1C6CF6D14FF0004055
:1037C000A0F5800070470EF1020E2EF0030E5EF899
:1037D000044B244204D44FEA4102B2F17F4F11D886
:1037E0004FEA4003B3F17F4F0CD80ED14FEAD07CA3
:1037F000B2F17F4F0CEB4C0C0CF1020C08BF4CEB00
:10380000D17C04E04FF0080C01E04FEAD17C0CEBD6
:103810004C0324FA03F404F00704B4F1040C06D2B8
:103820000EEB840CBDE810404CF0010C6047DFE863
:103830000CF0070802024FF00040A0F5800010BD18
:103840000846420018BFD2F1807288BF00F00040E5
:1038500010BDFF2141EAD050C005704751EA000C6D
:1038600000F113801CF5000F58BFBCF5000F01D408
:103870008142704707D711F5000F58BF10F5000FB0
:1038800015D481427047894270471CF5000F04D55A
:10389000BCF5000FF7D5884270474FF0807C1CEBD9
:1038A000410F38BF1CEB400F01D28842704780EABD
:1038B000010081EA000180EA0100FFF7F8BE000084
:1038C00090EA010F48BF81F000413FF530AD421A48
:1038D00004D882F00042A0EB020011444FEAD0521B
:1038E0004FF07F4C1CEA410FA2EBD15318BF9CEA6A
:1038F000026F4AD04FF0004C4CEA00204CEA012104
:1039000021FA03FCB0EB0C0C0FD412F0FE0F36D0F2
:103910005FEA4C001DD5001240EBC25038BF704723
:103920001CF03F0F18BF70470BE0A2F101025FEAE5
:103930001C2040EBC25038BF70471CF07F0F18BFEF
:103940007047C3F12003994014BF401E20F00100CE
:10395000704780084FEA122308BF7047B0FA80FC16
:10396000A2EB0C02CCF1280C60FA0CF093EA122FB7
:1039700004BF00EBC25070474FEAC3707047130A90
:103980005FEADC1008BF7047F6E79CEA026F04D0DC
:1039900010EA5C0F08BF0020704710B5FFF713FF57
:1039A00040DFF63E81F0004070470CF00F03092B1A
:1039B00008BF082000F051800A2B0BD0082B18BF3D
:1039C000704708BF1CF0400F0AD04FF000004FF0C6
:1039D000000170471CF0400F18BF4FF000407047C7
:1039E0001CF0100F08D020F0704300F07F4242EA34
:1039F000D3014FEA4370704700F0604021F07F42EE
:103A000042EA000201F07F4040EA727070474FF0D6
:103A1000FF0212EAD0521CBF92F0FF038B42C2BFDA
:103A2000D14200EBC1507047002A0AD0002B0BD0C6
:103A3000002900F00040A4BF40F0FE4040F4000028
:103A4000704700F00040704743024FF00B0C18BF66
:103A50004CF0806C7FF4C6AC70471CF4801F11D012
:103A60001CF4E02F03D06FEACC31490070474FF0CF
:103A70004050EFF3008222F0704242EA000282F3EB
:103A8000008870474FF00000704700000000000001
:103A900000005F000000000700070000147F147F93
:103AA0001400242A7F2A1200231308646200364976
:103AB00055225000000503000000001C22410000B8
:103AC0000041221C000014083E08140008083E08AB
:103AD00008000050300000000808080808000060D6
:103AE000600000002010080402003E5149453E00DD
:103AF00000427F4000004261514946002141454B50
:103B000031001814127F10002745454539003C4A02
:103B10004949300001710905030036494949360019
:103B2000064949291E0000363600000000563600BE
:103B30000000081422410000141414141400004161
:103B400022140800020151090600324979413E0061
:103B50007E1111117E007F49494936003E414141A5
:103B600022007F4141221C007F49494941007F09D1
:103B7000090901003E4149497A007F0808087F0091
:103B800000417F4100002040413F01007F08142296
:103B900041007F40404040007F020C027F007F04D4
:103BA00008107F003E4141413E007F09090906009F
:103BB0003E4151215E007F09192946004649494985
:103BC000310001017F0101003F4040403F001F20C4
:103BD00040201F003F4038403F006314081463003A
:103BE000070870080700615149454300007F4141C3
:103BF00000000204081020000041417F0000040280
:103C00000102040040404040400000010204000066
:103C10002054545478007F48444438003844444485
:103C20002000384444487F00385454541800087E1B
:103C3000090102000C5252523E007F080404780031
:103C400000447D4000002040443D00007F10284497
:103C5000000000417F4000007C04180478007C08CC
:103C6000040478003844444438007C1414140800D8
:103C7000081414187C007C080404080048545454A8
:103C80002000043F444020003C4040207C001C2099
:103C900040201C003C4030403C0044281028440098
:103CA0000C5050503C004464544C440000083641D1
:103CB000000000007F0000000041360800000804FA
:103CC00008100800010202030405060708090A0B90
:103CD0000C0D0E0F1010000000000000000001028B
:103CE0000304060708090000000000000030F13D51
:103CF0000070643E0000A33E0090CF3E0090F83E6E
:103D000000400F3F00E0203F0000000015B7833760
:103D1000CDE37B380EE1C53860F69138AF5F0F38E0
:103D2000E1BC3E3823F44739483D0008000000203C
:103D30009000000028010008D83D000890000020F5
:103D400060080000440100080000000000000000BE
:103D5000000000000000C841000000000000C84151
:103D600000007041000050410000B8410000A8412F
:103D70000000F841000000420000284200003442E8
:103D8000000034420000444200005C4200007042E7
:103D90000000FF0000000000010000010101000020
:103DA00000000C420000A0410000C84100000000DB
:103DB0000000000000000000000000000000000003
:103DC00000000000000000000100000010000000E2
:083DD0000000000000127A005F
:04000005080000ED02
:00000001FF
